{
  "contractName": "FlightSuretyData",
  "abi": [
    {
      "inputs": [],
      "payable": false,
      "stateMutability": "nonpayable",
      "type": "constructor",
      "signature": "constructor"
    },
    {
      "payable": true,
      "stateMutability": "payable",
      "type": "fallback"
    },
    {
      "anonymous": false,
      "inputs": [
        {
          "indexed": false,
          "name": "airline",
          "type": "address"
        }
      ],
      "name": "airlineRegistered",
      "type": "event",
      "signature": "0x2ef49f308764ebe6c1149ac59bf417810aa1d676e95227cc4638855c9eaf6c88"
    },
    {
      "anonymous": false,
      "inputs": [
        {
          "indexed": false,
          "name": "airline",
          "type": "address"
        }
      ],
      "name": "airlineFunded",
      "type": "event",
      "signature": "0x6a271d1fc1ff00cf80d9e67d144d2a4ea770a812df72ceed4f0083f76c568769"
    },
    {
      "anonymous": false,
      "inputs": [
        {
          "indexed": false,
          "name": "airline",
          "type": "address"
        },
        {
          "indexed": false,
          "name": "flight",
          "type": "string"
        },
        {
          "indexed": false,
          "name": "timestamp",
          "type": "uint256"
        },
        {
          "indexed": false,
          "name": "senderAddress",
          "type": "address"
        },
        {
          "indexed": false,
          "name": "insuranceAmount",
          "type": "uint256"
        }
      ],
      "name": "insurancePurchased",
      "type": "event",
      "signature": "0x2f5eaec89c448bc4325368dffdd31c08b8c499c39517098bc7f40bd7ded5dbc1"
    },
    {
      "anonymous": false,
      "inputs": [
        {
          "indexed": false,
          "name": "airline",
          "type": "address"
        },
        {
          "indexed": false,
          "name": "flight",
          "type": "string"
        },
        {
          "indexed": false,
          "name": "timestamp",
          "type": "uint256"
        },
        {
          "indexed": false,
          "name": "insuree",
          "type": "address"
        },
        {
          "indexed": false,
          "name": "creditedAmount",
          "type": "uint256"
        }
      ],
      "name": "insuranceClaimed",
      "type": "event",
      "signature": "0x2818c3e0b02d5133bc40330d253069b2b6146dcaf3d449da257e7a895c36733e"
    },
    {
      "anonymous": false,
      "inputs": [
        {
          "indexed": false,
          "name": "senderAddress",
          "type": "address"
        },
        {
          "indexed": false,
          "name": "amount",
          "type": "uint256"
        }
      ],
      "name": "amountWithdrawn",
      "type": "event",
      "signature": "0xb2f5d4c0f2ba5229a12fd1382c4e4a7de3abb1a36c6e9f17e123d90a555b61b3"
    },
    {
      "constant": true,
      "inputs": [],
      "name": "isOperational",
      "outputs": [
        {
          "name": "",
          "type": "bool"
        }
      ],
      "payable": false,
      "stateMutability": "view",
      "type": "function",
      "signature": "0xcd905dff"
    },
    {
      "constant": false,
      "inputs": [
        {
          "name": "mode",
          "type": "bool"
        }
      ],
      "name": "setOperatingStatus",
      "outputs": [],
      "payable": false,
      "stateMutability": "nonpayable",
      "type": "function",
      "signature": "0x110466ed"
    },
    {
      "constant": false,
      "inputs": [
        {
          "name": "newAirline",
          "type": "address"
        }
      ],
      "name": "registerAirline",
      "outputs": [],
      "payable": false,
      "stateMutability": "nonpayable",
      "type": "function",
      "signature": "0xbdfd9877"
    },
    {
      "constant": true,
      "inputs": [
        {
          "name": "newAirline",
          "type": "address"
        }
      ],
      "name": "isAirlineRegistered",
      "outputs": [
        {
          "name": "",
          "type": "bool"
        }
      ],
      "payable": false,
      "stateMutability": "view",
      "type": "function",
      "signature": "0x010c5c97"
    },
    {
      "constant": false,
      "inputs": [
        {
          "name": "airline",
          "type": "address"
        }
      ],
      "name": "permitAirline",
      "outputs": [],
      "payable": true,
      "stateMutability": "payable",
      "type": "function",
      "signature": "0x414671da"
    },
    {
      "constant": true,
      "inputs": [
        {
          "name": "airline",
          "type": "address"
        }
      ],
      "name": "isPermitted",
      "outputs": [
        {
          "name": "",
          "type": "bool"
        }
      ],
      "payable": false,
      "stateMutability": "view",
      "type": "function",
      "signature": "0x3fd8cc4e"
    },
    {
      "constant": true,
      "inputs": [],
      "name": "getRegisteredAirlines",
      "outputs": [
        {
          "name": "",
          "type": "address[]"
        }
      ],
      "payable": false,
      "stateMutability": "view",
      "type": "function",
      "signature": "0xc23bcf09"
    },
    {
      "constant": true,
      "inputs": [],
      "name": "getPermittedAirlines",
      "outputs": [
        {
          "name": "",
          "type": "address[]"
        }
      ],
      "payable": false,
      "stateMutability": "view",
      "type": "function",
      "signature": "0x73672d62"
    },
    {
      "constant": false,
      "inputs": [
        {
          "name": "newAirline",
          "type": "address"
        },
        {
          "name": "sender",
          "type": "address"
        }
      ],
      "name": "setVotes",
      "outputs": [
        {
          "name": "",
          "type": "address[]"
        }
      ],
      "payable": false,
      "stateMutability": "nonpayable",
      "type": "function",
      "signature": "0x9cb0165b"
    },
    {
      "constant": true,
      "inputs": [
        {
          "name": "newAirline",
          "type": "address"
        }
      ],
      "name": "getVotes",
      "outputs": [
        {
          "name": "",
          "type": "address[]"
        }
      ],
      "payable": false,
      "stateMutability": "view",
      "type": "function",
      "signature": "0x9ab24eb0"
    },
    {
      "constant": true,
      "inputs": [
        {
          "name": "newAirline",
          "type": "address"
        },
        {
          "name": "sender",
          "type": "address"
        }
      ],
      "name": "isVoted",
      "outputs": [
        {
          "name": "",
          "type": "bool"
        }
      ],
      "payable": false,
      "stateMutability": "view",
      "type": "function",
      "signature": "0x2384ca0b"
    },
    {
      "constant": false,
      "inputs": [
        {
          "name": "airline",
          "type": "address"
        },
        {
          "name": "flight",
          "type": "string"
        },
        {
          "name": "timestamp",
          "type": "uint256"
        },
        {
          "name": "insuree",
          "type": "address"
        },
        {
          "name": "insuranceAmount",
          "type": "uint256"
        }
      ],
      "name": "buy",
      "outputs": [],
      "payable": true,
      "stateMutability": "payable",
      "type": "function",
      "signature": "0xb11dca78"
    },
    {
      "constant": false,
      "inputs": [
        {
          "name": "airline",
          "type": "address"
        },
        {
          "name": "flight",
          "type": "string"
        },
        {
          "name": "timestamp",
          "type": "uint256"
        },
        {
          "name": "insuree",
          "type": "address"
        }
      ],
      "name": "creditInsurees",
      "outputs": [],
      "payable": false,
      "stateMutability": "nonpayable",
      "type": "function",
      "signature": "0xb50c95f7"
    },
    {
      "constant": false,
      "inputs": [
        {
          "name": "insuree",
          "type": "address"
        }
      ],
      "name": "pay",
      "outputs": [],
      "payable": true,
      "stateMutability": "payable",
      "type": "function",
      "signature": "0x0c11dedd"
    },
    {
      "constant": false,
      "inputs": [
        {
          "name": "toFundAddress",
          "type": "address"
        }
      ],
      "name": "fund",
      "outputs": [],
      "payable": true,
      "stateMutability": "payable",
      "type": "function",
      "signature": "0x23024408"
    }
  ],
  "bytecode": "0x60806040526001600060146101000a81548160ff02191690831515021790555034801561002b57600080fd5b50336000806101000a81548173ffffffffffffffffffffffffffffffffffffffff021916908373ffffffffffffffffffffffffffffffffffffffff16021790555060013390806001815401808255809150509060018203906000526020600020016000909192909190916101000a81548173ffffffffffffffffffffffffffffffffffffffff021916908373ffffffffffffffffffffffffffffffffffffffff160217905550506000600360003373ffffffffffffffffffffffffffffffffffffffff1673ffffffffffffffffffffffffffffffffffffffff16815260200190815260200160002060006101000a81548160ff02191690831515021790555060023390806001815401808255809150509060018203906000526020600020016000909192909190916101000a81548173ffffffffffffffffffffffffffffffffffffffff021916908373ffffffffffffffffffffffffffffffffffffffff160217905550506122e38061019f6000396000f3006080604052600436106100db576000357c0100000000000000000000000000000000000000000000000000000000900463ffffffff168063010c5c97146100e65780630c11dedd14610141578063110466ed1461017757806323024408146101a65780632384ca0b146101dc5780633fd8cc4e14610257578063414671da146102b257806373672d62146102e85780639ab24eb0146103545780639cb0165b146103ec578063b11dca78146104a4578063b50c95f714610526578063bdfd9877146105ab578063c23bcf09146105ee578063cd905dff1461065a575b6100e433610689565b005b3480156100f257600080fd5b50610127600480360381019080803573ffffffffffffffffffffffffffffffffffffffff169060200190929190505050610721565b604051808215151515815260200191505060405180910390f35b610175600480360381019080803573ffffffffffffffffffffffffffffffffffffffff16906020019092919050505061086e565b005b34801561018357600080fd5b506101a4600480360381019080803515159060200190929190505050610a63565b005b6101da600480360381019080803573ffffffffffffffffffffffffffffffffffffffff169060200190929190505050610689565b005b3480156101e857600080fd5b5061023d600480360381019080803573ffffffffffffffffffffffffffffffffffffffff169060200190929190803573ffffffffffffffffffffffffffffffffffffffff169060200190929190505050610b44565b604051808215151515815260200191505060405180910390f35b34801561026357600080fd5b50610298600480360381019080803573ffffffffffffffffffffffffffffffffffffffff169060200190929190505050610d0c565b604051808215151515815260200191505060405180910390f35b6102e6600480360381019080803573ffffffffffffffffffffffffffffffffffffffff169060200190929190505050610e0b565b005b3480156102f457600080fd5b506102fd610fe2565b6040518080602001828103825283818151815260200191508051906020019060200280838360005b83811015610340578082015181840152602081019050610325565b505050509050019250505060405180910390f35b34801561036057600080fd5b50610395600480360381019080803573ffffffffffffffffffffffffffffffffffffffff16906020019092919050505061111a565b6040518080602001828103825283818151815260200191508051906020019060200280838360005b838110156103d85780820151818401526020810190506103bd565b505050509050019250505060405180910390f35b3480156103f857600080fd5b5061044d600480360381019080803573ffffffffffffffffffffffffffffffffffffffff169060200190929190803573ffffffffffffffffffffffffffffffffffffffff169060200190929190505050611291565b6040518080602001828103825283818151815260200191508051906020019060200280838360005b83811015610490578082015181840152602081019050610475565b505050509050019250505060405180910390f35b610524600480360381019080803573ffffffffffffffffffffffffffffffffffffffff16906020019092919080359060200190820180359060200191909192939192939080359060200190929190803573ffffffffffffffffffffffffffffffffffffffff169060200190929190803590602001909291905050506113e6565b005b34801561053257600080fd5b506105a9600480360381019080803573ffffffffffffffffffffffffffffffffffffffff16906020019092919080359060200190820180359060200191909192939192939080359060200190929190803573ffffffffffffffffffffffffffffffffffffffff1690602001909291905050506117da565b005b3480156105b757600080fd5b506105ec600480360381019080803573ffffffffffffffffffffffffffffffffffffffff169060200190929190505050611df3565b005b3480156105fa57600080fd5b50610603611fc1565b6040518080602001828103825283818151815260200191508051906020019060200280838360005b8381101561064657808201518184015260208101905061062b565b505050509050019250505060405180910390f35b34801561066657600080fd5b5061066f6120f9565b604051808215151515815260200191505060405180910390f35b6106db34600760008473ffffffffffffffffffffffffffffffffffffffff1673ffffffffffffffffffffffffffffffffffffffff1681526020019081526020016000205461210f90919063ffffffff16565b600760008373ffffffffffffffffffffffffffffffffffffffff1673ffffffffffffffffffffffffffffffffffffffff1681526020019081526020016000208190555050565b60008060008060149054906101000a900460ff1615156107cf576040517f08c379a00000000000000000000000000000000000000000000000000000000081526004018080602001828103825260258152602001807f436f6e74726163742069732063757272656e746c79206e6f74206f706572617481526020017f696f6e616c00000000000000000000000000000000000000000000000000000081525060400191505060405180910390fd5b60009150600090505b600180549050811015610864578373ffffffffffffffffffffffffffffffffffffffff1660018281548110151561080b57fe5b9060005260206000200160009054906101000a900473ffffffffffffffffffffffffffffffffffffffff1673ffffffffffffffffffffffffffffffffffffffff16141561085757600191505b80806001019150506107d8565b8192505050919050565b600080600760008473ffffffffffffffffffffffffffffffffffffffff1673ffffffffffffffffffffffffffffffffffffffff16815260200190815260200160002054111515610926576040517f08c379a00000000000000000000000000000000000000000000000000000000081526004018080602001828103825260098152602001807f4e6f20637265646974000000000000000000000000000000000000000000000081525060200191505060405180910390fd5b600760008373ffffffffffffffffffffffffffffffffffffffff1673ffffffffffffffffffffffffffffffffffffffff1681526020019081526020016000205490506000600760008473ffffffffffffffffffffffffffffffffffffffff1673ffffffffffffffffffffffffffffffffffffffff168152602001908152602001600020819055508173ffffffffffffffffffffffffffffffffffffffff166108fc829081150290604051600060405180830381858888f193505050501580156109f3573d6000803e3d6000fd5b507fb2f5d4c0f2ba5229a12fd1382c4e4a7de3abb1a36c6e9f17e123d90a555b61b38282604051808373ffffffffffffffffffffffffffffffffffffffff1673ffffffffffffffffffffffffffffffffffffffff1681526020018281526020019250505060405180910390a15050565b6000809054906101000a900473ffffffffffffffffffffffffffffffffffffffff1673ffffffffffffffffffffffffffffffffffffffff163373ffffffffffffffffffffffffffffffffffffffff16141515610b27576040517f08c379a000000000000000000000000000000000000000000000000000000000815260040180806020018281038252601c8152602001807f43616c6c6572206973206e6f7420636f6e7472616374206f776e65720000000081525060200191505060405180910390fd5b80600060146101000a81548160ff02191690831515021790555050565b60008060008060149054906101000a900460ff161515610bf2576040517f08c379a00000000000000000000000000000000000000000000000000000000081526004018080602001828103825260258152602001807f436f6e74726163742069732063757272656e746c79206e6f74206f706572617481526020017f696f6e616c00000000000000000000000000000000000000000000000000000081525060400191505060405180910390fd5b60009150600090505b600460008673ffffffffffffffffffffffffffffffffffffffff1673ffffffffffffffffffffffffffffffffffffffff16815260200190815260200160002080549050811015610d01578373ffffffffffffffffffffffffffffffffffffffff16600460008773ffffffffffffffffffffffffffffffffffffffff1673ffffffffffffffffffffffffffffffffffffffff16815260200190815260200160002082815481101515610ca857fe5b9060005260206000200160009054906101000a900473ffffffffffffffffffffffffffffffffffffffff1673ffffffffffffffffffffffffffffffffffffffff161415610cf457600191505b8080600101915050610bfb565b819250505092915050565b60008060149054906101000a900460ff161515610db7576040517f08c379a00000000000000000000000000000000000000000000000000000000081526004018080602001828103825260258152602001807f436f6e74726163742069732063757272656e746c79206e6f74206f706572617481526020017f696f6e616c00000000000000000000000000000000000000000000000000000081525060400191505060405180910390fd5b600360008373ffffffffffffffffffffffffffffffffffffffff1673ffffffffffffffffffffffffffffffffffffffff16815260200190815260200160002060009054906101000a900460ff169050919050565b600060149054906101000a900460ff161515610eb5576040517f08c379a00000000000000000000000000000000000000000000000000000000081526004018080602001828103825260258152602001807f436f6e74726163742069732063757272656e746c79206e6f74206f706572617481526020017f696f6e616c00000000000000000000000000000000000000000000000000000081525060400191505060405180910390fd5b6001600360008373ffffffffffffffffffffffffffffffffffffffff1673ffffffffffffffffffffffffffffffffffffffff16815260200190815260200160002060006101000a81548160ff02191690831515021790555060028190806001815401808255809150509060018203906000526020600020016000909192909190916101000a81548173ffffffffffffffffffffffffffffffffffffffff021916908373ffffffffffffffffffffffffffffffffffffffff16021790555050610f7c81610689565b7f6a271d1fc1ff00cf80d9e67d144d2a4ea770a812df72ceed4f0083f76c56876981604051808273ffffffffffffffffffffffffffffffffffffffff1673ffffffffffffffffffffffffffffffffffffffff16815260200191505060405180910390a150565b6060600060149054906101000a900460ff16151561108e576040517f08c379a00000000000000000000000000000000000000000000000000000000081526004018080602001828103825260258152602001807f436f6e74726163742069732063757272656e746c79206e6f74206f706572617481526020017f696f6e616c00000000000000000000000000000000000000000000000000000081525060400191505060405180910390fd5b600280548060200260200160405190810160405280929190818152602001828054801561111057602002820191906000526020600020905b8160009054906101000a900473ffffffffffffffffffffffffffffffffffffffff1673ffffffffffffffffffffffffffffffffffffffff16815260200190600101908083116110c6575b5050505050905090565b6060600060149054906101000a900460ff1615156111c6576040517f08c379a00000000000000000000000000000000000000000000000000000000081526004018080602001828103825260258152602001807f436f6e74726163742069732063757272656e746c79206e6f74206f706572617481526020017f696f6e616c00000000000000000000000000000000000000000000000000000081525060400191505060405180910390fd5b600460008373ffffffffffffffffffffffffffffffffffffffff1673ffffffffffffffffffffffffffffffffffffffff16815260200190815260200160002080548060200260200160405190810160405280929190818152602001828054801561128557602002820191906000526020600020905b8160009054906101000a900473ffffffffffffffffffffffffffffffffffffffff1673ffffffffffffffffffffffffffffffffffffffff168152602001906001019080831161123b575b50505050509050919050565b6060600060149054906101000a900460ff16151561133d576040517f08c379a00000000000000000000000000000000000000000000000000000000081526004018080602001828103825260258152602001807f436f6e74726163742069732063757272656e746c79206e6f74206f706572617481526020017f696f6e616c00000000000000000000000000000000000000000000000000000081525060400191505060405180910390fd5b600460008473ffffffffffffffffffffffffffffffffffffffff1673ffffffffffffffffffffffffffffffffffffffff1681526020019081526020016000208290806001815401808255809150509060018203906000526020600020016000909192909190916101000a81548173ffffffffffffffffffffffffffffffffffffffff021916908373ffffffffffffffffffffffffffffffffffffffff1602179055505092915050565b600080600060149054906101000a900460ff161515611493576040517f08c379a00000000000000000000000000000000000000000000000000000000081526004018080602001828103825260258152602001807f436f6e74726163742069732063757272656e746c79206e6f74206f706572617481526020017f696f6e616c00000000000000000000000000000000000000000000000000000081525060400191505060405180910390fd5b6114d08888888080601f0160208091040260200160405190810160405280939291908181526020018383808284378201915050505050508761212b565b915081846040516020018083600019166000191681526020018273ffffffffffffffffffffffffffffffffffffffff1673ffffffffffffffffffffffffffffffffffffffff166c01000000000000000000000000028152601401925050506040516020818303038152906040526040518082805190602001908083835b602083101515611572578051825260208201915060208101905060208303925061154d565b6001836020036101000a03801982511681845116808217855250505050505090500191505060405180910390209050608060405190810160405280826000191681526020018573ffffffffffffffffffffffffffffffffffffffff168152602001848152602001600015158152506005600083600019166000191681526020019081526020016000206000820151816000019060001916905560208201518160010160006101000a81548173ffffffffffffffffffffffffffffffffffffffff021916908373ffffffffffffffffffffffffffffffffffffffff1602179055506040820151816002015560608201518160030160006101000a81548160ff0219169083151502179055509050506006600083600019166000191681526020019081526020016000208490806001815401808255809150509060018203906000526020600020016000909192909190916101000a81548173ffffffffffffffffffffffffffffffffffffffff021916908373ffffffffffffffffffffffffffffffffffffffff1602179055505061170788610689565b7f2f5eaec89c448bc4325368dffdd31c08b8c499c39517098bc7f40bd7ded5dbc1888888888888604051808773ffffffffffffffffffffffffffffffffffffffff1673ffffffffffffffffffffffffffffffffffffffff168152602001806020018581526020018473ffffffffffffffffffffffffffffffffffffffff1673ffffffffffffffffffffffffffffffffffffffff1681526020018381526020018281038252878782818152602001925080828437820191505097505050505050505060405180910390a15050505050505050565b600080600080600060149054906101000a900460ff16151561188a576040517f08c379a00000000000000000000000000000000000000000000000000000000081526004018080602001828103825260258152602001807f436f6e74726163742069732063757272656e746c79206e6f74206f706572617481526020017f696f6e616c00000000000000000000000000000000000000000000000000000081525060400191505060405180910390fd5b6118c78989898080601f0160208091040260200160405190810160405280939291908181526020018383808284378201915050505050508861212b565b935083856040516020018083600019166000191681526020018273ffffffffffffffffffffffffffffffffffffffff1673ffffffffffffffffffffffffffffffffffffffff166c01000000000000000000000000028152601401925050506040516020818303038152906040526040518082805190602001908083835b6020831015156119695780518252602082019150602081019050602083039250611944565b6001836020036101000a0380198251168184511680821785525050505050509050019150506040518091039020925082600019166005600085600019166000191681526020019081526020016000206000015460001916141515611a35576040517f08c379a000000000000000000000000000000000000000000000000000000000815260040180806020018281038252601c8152602001807f4e6f74207075726368617365642074686520696e737572616e63652e0000000081525060200191505060405180910390fd5b60056000846000191660001916815260200190815260200160002060030160009054906101000a900460ff16151515611ad6576040517f08c379a000000000000000000000000000000000000000000000000000000000815260040180806020018281038252601c8152602001807f416c726561647920726566756e6465642074686520616d6f756e742e0000000081525060200191505060405180910390fd5b600760008a73ffffffffffffffffffffffffffffffffffffffff1673ffffffffffffffffffffffffffffffffffffffff168152602001908152602001600020549150611b5d600a611b4f600f6005600088600019166000191681526020019081526020016000206002015461225090919063ffffffff16565b61228890919063ffffffff16565b9050808210151515611bfd576040517f08c379a00000000000000000000000000000000000000000000000000000000081526004018080602001828103825260228152602001807f4169726c696e6520446f65736e2774206861766520656e6f7567682066756e6481526020017f732e00000000000000000000000000000000000000000000000000000000000081525060400191505060405180910390fd5b600160056000856000191660001916815260200190815260200160002060030160006101000a81548160ff021916908315150217905550611c47818361229e90919063ffffffff16565b600760008b73ffffffffffffffffffffffffffffffffffffffff1673ffffffffffffffffffffffffffffffffffffffff16815260200190815260200160002081905550611cdc81600760008873ffffffffffffffffffffffffffffffffffffffff1673ffffffffffffffffffffffffffffffffffffffff1681526020019081526020016000205461210f90919063ffffffff16565b600760008773ffffffffffffffffffffffffffffffffffffffff1673ffffffffffffffffffffffffffffffffffffffff168152602001908152602001600020819055507f2818c3e0b02d5133bc40330d253069b2b6146dcaf3d449da257e7a895c36733e898989898986604051808773ffffffffffffffffffffffffffffffffffffffff1673ffffffffffffffffffffffffffffffffffffffff168152602001806020018581526020018473ffffffffffffffffffffffffffffffffffffffff1673ffffffffffffffffffffffffffffffffffffffff1681526020018381526020018281038252878782818152602001925080828437820191505097505050505050505060405180910390a1505050505050505050565b600060149054906101000a900460ff161515611e9d576040517f08c379a00000000000000000000000000000000000000000000000000000000081526004018080602001828103825260258152602001807f436f6e74726163742069732063757272656e746c79206e6f74206f706572617481526020017f696f6e616c00000000000000000000000000000000000000000000000000000081525060400191505060405180910390fd5b60018190806001815401808255809150509060018203906000526020600020016000909192909190916101000a81548173ffffffffffffffffffffffffffffffffffffffff021916908373ffffffffffffffffffffffffffffffffffffffff160217905550506000600360008373ffffffffffffffffffffffffffffffffffffffff1673ffffffffffffffffffffffffffffffffffffffff16815260200190815260200160002060006101000a81548160ff0219169083151502179055507f2ef49f308764ebe6c1149ac59bf417810aa1d676e95227cc4638855c9eaf6c8881604051808273ffffffffffffffffffffffffffffffffffffffff1673ffffffffffffffffffffffffffffffffffffffff16815260200191505060405180910390a150565b6060600060149054906101000a900460ff16151561206d576040517f08c379a00000000000000000000000000000000000000000000000000000000081526004018080602001828103825260258152602001807f436f6e74726163742069732063757272656e746c79206e6f74206f706572617481526020017f696f6e616c00000000000000000000000000000000000000000000000000000081525060400191505060405180910390fd5b60018054806020026020016040519081016040528092919081815260200182805480156120ef57602002820191906000526020600020905b8160009054906101000a900473ffffffffffffffffffffffffffffffffffffffff1673ffffffffffffffffffffffffffffffffffffffff16815260200190600101908083116120a5575b5050505050905090565b60008060149054906101000a900460ff16905090565b6000818301905082811015151561212257fe5b80905092915050565b6000838383604051602001808473ffffffffffffffffffffffffffffffffffffffff1673ffffffffffffffffffffffffffffffffffffffff166c0100000000000000000000000002815260140183805190602001908083835b6020831015156121a95780518252602082019150602081019050602083039250612184565b6001836020036101000a03801982511681845116808217855250505050505090500182815260200193505050506040516020818303038152906040526040518082805190602001908083835b60208310151561221a57805182526020820191506020810190506020830392506121f5565b6001836020036101000a038019825116818451168082178552505050505050905001915050604051809103902090509392505050565b6000808314156122635760009050612282565b818302905081838281151561227457fe5b0414151561227e57fe5b8090505b92915050565b6000818381151561229557fe5b04905092915050565b60008282111515156122ac57fe5b8183039050929150505600a165627a7a72305820e207d5f367bc842fc1f869f1be03e5be4901b08beaf56065904d6c15b69250550029",
  "source": "pragma solidity ^0.4.25;\n\nimport \"../node_modules/openzeppelin-solidity/contracts/math/SafeMath.sol\";\n\ncontract FlightSuretyData {\n    using SafeMath for uint256;\n\n    /********************************************************************************************/\n    /*                                       DATA VARIABLES                                     */\n    /********************************************************************************************/\n\n    address private contractOwner;                                      // Account used to deploy contract\n    bool private operational = true;                                    // Blocks all state changes throughout the contract if false\n\n    address[] private airlines;\n    address[] private permittedAirlines;\n\n    mapping(address => bool) private airlinesPermission;\n    mapping(address => address[]) private votes;\n\n    struct Insurance {\n        bytes32 id;\n        address owner;\n        uint256 amount;\n        bool isRefunded;\n    }\n    mapping(bytes32 => Insurance) private flightInsuranceDetails;\n    mapping(bytes32 => address[]) private flightInsurances;\n\n    mapping(address => uint256) private walletBalance;\n\n    /********************************************************************************************/\n    /*                                       EVENT DEFINITIONS                                  */\n    /********************************************************************************************/\n\n    event airlineRegistered(address airline);\n    event airlineFunded(address airline);\n    event insurancePurchased(address airline, string flight, uint256 timestamp, address senderAddress, uint256 insuranceAmount);\n    event insuranceClaimed(address airline, string flight, uint256 timestamp, address insuree, uint256 creditedAmount);\n    event amountWithdrawn(address senderAddress, uint amount);\n\n    /**\n    * @dev Constructor\n    *      The deploying account becomes contractOwner\n    */\n    constructor\n                                (\n                                )\n                                public\n    {\n        contractOwner = msg.sender;\n        airlines.push(msg.sender);\n        airlinesPermission[msg.sender] = false;\n        permittedAirlines.push(msg.sender);\n    }\n\n    /********************************************************************************************/\n    /*                                       FUNCTION MODIFIERS                                 */\n    /********************************************************************************************/\n\n    // Modifiers help avoid duplication of code. They are typically used to validate something\n    // before a function is allowed to be executed.\n\n    /**\n    * @dev Modifier that requires the \"operational\" boolean variable to be \"true\"\n    *      This is used on all state changing functions to pause the contract in\n    *      the event there is an issue that needs to be fixed\n    */\n    modifier requireIsOperational()\n    {\n        require(operational, \"Contract is currently not operational\");\n        _;  // All modifiers require an \"_\" which indicates where the function body will be added\n    }\n\n    modifier requireIsRegistered(address airline)\n    {\n        require(isAirlineRegistered(airline), \"Airline is not registered\");\n        _;  // All modifiers require an \"_\" which indicates where the function body will be added\n    }\n\n    /**\n    * @dev Modifier that requires the \"ContractOwner\" account to be the function caller\n    */\n    modifier requireContractOwner()\n    {\n        require(msg.sender == contractOwner, \"Caller is not contract owner\");\n        _;\n    }\n\n    /********************************************************************************************/\n    /*                                       UTILITY FUNCTIONS                                  */\n    /********************************************************************************************/\n\n    /**\n    * @dev Get operating status of contract\n    *\n    * @return A bool that is the current operating status\n    */\n    function isOperational()\n                            public\n                            view\n                            returns(bool)\n    {\n        return operational;\n    }\n\n    /**\n    * @dev Sets contract operations on/off\n    *\n    * When operational mode is disabled, all write transactions except for this one will fail\n    */\n    function setOperatingStatus\n                            (\n                                bool mode\n                            )\n                            external\n                            requireContractOwner\n    {\n        operational = mode;\n    }\n\n    /********************************************************************************************/\n    /*                                     SMART CONTRACT FUNCTIONS                             */\n    /********************************************************************************************/\n\n   /**\n    * @dev Add an airline to the registration queue\n    *      Can only be called from FlightSuretyApp contract\n    *\n    */\n    function registerAirline\n                            (\n                                address newAirline\n                            )\n                            external\n                            requireIsOperational\n    {\n        airlines.push(newAirline);\n        airlinesPermission[newAirline] = false;\n        emit airlineRegistered(newAirline);\n    }\n\n    function isAirlineRegistered\n                            (\n                                address newAirline\n                            )\n                            public\n                            view\n                            requireIsOperational\n                            returns(bool)\n    {\n        bool isRegistered = false;\n        for(uint i = 0; i < airlines.length; i++) {\n            if(airlines[i] == newAirline) {\n                isRegistered = true;\n            }\n        }\n        return isRegistered;\n    }\n\n    function permitAirline\n                            (\n                                address airline\n                            )\n                            public\n                            payable\n                            requireIsOperational\n    {\n        airlinesPermission[airline] = true;\n        permittedAirlines.push(airline);\n        fund(airline);\n        emit airlineFunded(airline);\n    }\n\n    function isPermitted\n                            (\n                                address airline\n                            )\n                            public\n                            view\n                            requireIsOperational\n                            returns(bool)\n    {\n        return airlinesPermission[airline];\n    }\n\n    function getRegisteredAirlines()\n                            public\n                            view\n                            requireIsOperational\n                            returns(address[])\n    {\n        return airlines;\n    }\n\n    function getPermittedAirlines()\n                            public\n                            view\n                            requireIsOperational\n                            returns(address[])\n    {\n        return permittedAirlines;\n    }\n\n    function setVotes\n                            (\n                                address newAirline, address sender\n                            )\n                            public\n                            requireIsOperational\n                            returns(address[])\n    {\n        votes[newAirline].push(sender);\n    }\n\n    function getVotes\n                            (\n                                address newAirline\n                            )\n                            public\n                            view\n                            requireIsOperational\n                            returns(address[])\n    {\n        return votes[newAirline];\n    }\n\n    function isVoted\n                            (\n                                address newAirline, address sender\n                            )\n                            public\n                            view\n                            requireIsOperational\n                            returns(bool)\n    {\n        bool isAlreadyVoted = false;\n        for(uint i = 0; i < votes[newAirline].length; i++) {\n            if(votes[newAirline][i] == sender){\n                isAlreadyVoted = true;\n            }\n        }\n        return isAlreadyVoted;\n    }\n\n   /**\n    * @dev Buy insurance for a flight\n    *\n    */\n    function buy\n                            (\n                                address airline, string flight, uint256 timestamp, address insuree, uint256 insuranceAmount\n                            )\n                            external\n                            payable\n                            requireIsOperational\n    {\n        bytes32 flightKey = getFlightKey(airline, flight, timestamp);\n        bytes32 insuranceId = keccak256(abi.encodePacked(flightKey, insuree));\n        flightInsuranceDetails[insuranceId] = Insurance({\n            id: insuranceId,\n            owner: insuree,\n            amount: insuranceAmount,\n            isRefunded: false\n        });\n        flightInsurances[flightKey].push(insuree);\n        fund(airline);\n        emit insurancePurchased(airline, flight, timestamp, insuree, insuranceAmount);\n    }\n\n    /**\n     *  @dev Credits payouts to insurees\n    */\n    function creditInsurees\n                                (\n                                    address airline, string flight, uint256 timestamp, address insuree\n                                )\n                                external\n                                requireIsOperational\n    {\n        bytes32 flightKey = getFlightKey(airline, flight, timestamp);\n        bytes32 insuranceId = keccak256(abi.encodePacked(flightKey, insuree));\n\n        require(flightInsuranceDetails[insuranceId].id == insuranceId, \"Not purchased the insurance.\");\n        require(!flightInsuranceDetails[insuranceId].isRefunded, \"Already refunded the amount.\");\n\n        uint256 currentAirlineBalance = walletBalance[airline];\n        uint256 amountCreditedToInsuree = flightInsuranceDetails[insuranceId].amount.mul(15).div(10);\n\n        require(currentAirlineBalance >= amountCreditedToInsuree, \"Airline Doesn't have enough funds.\");\n\n        flightInsuranceDetails[insuranceId].isRefunded = true;\n        walletBalance[airline] = currentAirlineBalance.sub(amountCreditedToInsuree);\n        walletBalance[insuree] = walletBalance[insuree].add(amountCreditedToInsuree);\n\n        emit insuranceClaimed(airline, flight, timestamp, insuree, amountCreditedToInsuree);\n    }\n\n\n    /**\n     *  @dev Transfers eligible payout funds to insuree\n     *\n    */\n    function pay\n                            (\n                                address insuree\n                            )\n                            external\n                            payable\n    {\n        require(walletBalance[insuree] > 0, \"No credit\");\n        uint256 credit = walletBalance[insuree];\n        walletBalance[insuree] = 0;\n        insuree.transfer(credit);\n        emit amountWithdrawn(insuree, credit);\n    }\n\n   /**\n    * @dev Initial funding for the insurance. Unless there are too many delayed flights\n    *      resulting in insurance payouts, the contract should be self-sustaining\n    *\n    */\n    function fund\n                            (\n                                address toFundAddress\n                            )\n                            public\n                            payable\n    {\n        walletBalance[toFundAddress] = walletBalance[toFundAddress].add(msg.value);\n    }\n\n    function getFlightKey\n                        (\n                            address airline,\n                            string memory flight,\n                            uint256 timestamp\n                        )\n                        internal\n                        pure\n                        returns(bytes32)\n    {\n        return keccak256(abi.encodePacked(airline, flight, timestamp));\n    }\n\n    /**\n    * @dev Fallback function for funding smart contract.\n    *\n    */\n    function()\n                            external\n                            payable\n    {\n        fund(msg.sender);\n    }\n\n\n}\n\n",
  "sourcePath": "/Users/Kohei/Udacity_Blockchain_ND_v2/FlightSurety/contracts/FlightSuretyData.sol",
  "compiler": {
    "name": "solc",
    "version": "0.4.26+commit.4563c3fc.Emscripten.clang"
  },
  "schemaVersion": "3.0.1",
  "updatedAt": "2020-01-09T09:12:02.737Z",
  "devdoc": {
    "methods": {
      "buy(address,string,uint256,address,uint256)": {
        "details": "Buy insurance for a flight    "
      },
      "creditInsurees(address,string,uint256,address)": {
        "details": "Credits payouts to insurees"
      },
      "fund(address)": {
        "details": "Initial funding for the insurance. Unless there are too many delayed flights     resulting in insurance payouts, the contract should be self-sustaining    "
      },
      "isOperational()": {
        "details": "Get operating status of contract",
        "return": "A bool that is the current operating status"
      },
      "pay(address)": {
        "details": "Transfers eligible payout funds to insuree    "
      },
      "registerAirline(address)": {
        "details": "Add an airline to the registration queue     Can only be called from FlightSuretyApp contract    "
      },
      "setOperatingStatus(bool)": {
        "details": "Sets contract operations on/off    * When operational mode is disabled, all write transactions except for this one will fail"
      }
    }
  },
  "userdoc": {
    "methods": {}
  }
}